{
  "_format": "hh3-artifact-1",
  "contractName": "Escrow",
  "sourceName": "contracts/Escrow.sol",
  "abi": [
    {
      "inputs": [
        {
          "internalType": "address",
          "name": "_arbiter",
          "type": "address"
        },
        {
          "internalType": "address",
          "name": "_beneficiary",
          "type": "address"
        }
      ],
      "stateMutability": "payable",
      "type": "constructor"
    },
    {
      "anonymous": false,
      "inputs": [
        {
          "indexed": false,
          "internalType": "uint256",
          "name": "balance",
          "type": "uint256"
        }
      ],
      "name": "Approved",
      "type": "event"
    },
    {
      "inputs": [],
      "name": "amount",
      "outputs": [
        {
          "internalType": "uint256",
          "name": "",
          "type": "uint256"
        }
      ],
      "stateMutability": "view",
      "type": "function"
    },
    {
      "inputs": [],
      "name": "approve",
      "outputs": [],
      "stateMutability": "nonpayable",
      "type": "function"
    },
    {
      "inputs": [],
      "name": "arbiter",
      "outputs": [
        {
          "internalType": "address",
          "name": "",
          "type": "address"
        }
      ],
      "stateMutability": "view",
      "type": "function"
    },
    {
      "inputs": [],
      "name": "beneficiary",
      "outputs": [
        {
          "internalType": "address",
          "name": "",
          "type": "address"
        }
      ],
      "stateMutability": "view",
      "type": "function"
    },
    {
      "inputs": [],
      "name": "depositor",
      "outputs": [
        {
          "internalType": "address",
          "name": "",
          "type": "address"
        }
      ],
      "stateMutability": "view",
      "type": "function"
    },
    {
      "inputs": [],
      "name": "isApproved",
      "outputs": [
        {
          "internalType": "bool",
          "name": "",
          "type": "bool"
        }
      ],
      "stateMutability": "view",
      "type": "function"
    }
  ],
  "bytecode": "0x60806040526040516106e63803806106e683398181016040528101906100259190610150565b335f5f6101000a81548173ffffffffffffffffffffffffffffffffffffffff021916908373ffffffffffffffffffffffffffffffffffffffff1602179055508060015f6101000a81548173ffffffffffffffffffffffffffffffffffffffff021916908373ffffffffffffffffffffffffffffffffffffffff1602179055508160025f6101000a81548173ffffffffffffffffffffffffffffffffffffffff021916908373ffffffffffffffffffffffffffffffffffffffff16021790555034600381905550505061018e565b5f5ffd5b5f73ffffffffffffffffffffffffffffffffffffffff82169050919050565b5f61011f826100f6565b9050919050565b61012f81610115565b8114610139575f5ffd5b50565b5f8151905061014a81610126565b92915050565b5f5f60408385031215610166576101656100f2565b5b5f6101738582860161013c565b92505060206101848582860161013c565b9150509250929050565b61054b8061019b5f395ff3fe608060405234801561000f575f5ffd5b5060043610610060575f3560e01c806312424e3f1461006457806328f371aa1461006e57806338af3eed1461008c578063aa8c217c146100aa578063c7c4ff46146100c8578063fe25e00a146100e6575b5f5ffd5b61006c610104565b005b6100766102b2565b6040516100839190610352565b60405180910390f35b6100946102c4565b6040516100a191906103aa565b60405180910390f35b6100b26102e9565b6040516100bf91906103db565b60405180910390f35b6100d06102ef565b6040516100dd91906103aa565b60405180910390f35b6100ee610313565b6040516100fb91906103aa565b60405180910390f35b60025f9054906101000a900473ffffffffffffffffffffffffffffffffffffffff1673ffffffffffffffffffffffffffffffffffffffff163373ffffffffffffffffffffffffffffffffffffffff1614610193576040517f08c379a000000000000000000000000000000000000000000000000000000000815260040161018a9061044e565b60405180910390fd5b600160045f6101000a81548160ff0219169083151502179055505f60015f9054906101000a900473ffffffffffffffffffffffffffffffffffffffff1673ffffffffffffffffffffffffffffffffffffffff16476040516101f390610499565b5f6040518083038185875af1925050503d805f811461022d576040519150601f19603f3d011682016040523d82523d5f602084013e610232565b606091505b5050905080610276576040517f08c379a000000000000000000000000000000000000000000000000000000000815260040161026d906104f7565b60405180910390fd5b7f3ad93af63cb7967b23e4fb500b7d7d28b07516325dcf341f88bebf959d82c1cb6003546040516102a791906103db565b60405180910390a150565b60045f9054906101000a900460ff1681565b60015f9054906101000a900473ffffffffffffffffffffffffffffffffffffffff1681565b60035481565b5f5f9054906101000a900473ffffffffffffffffffffffffffffffffffffffff1681565b60025f9054906101000a900473ffffffffffffffffffffffffffffffffffffffff1681565b5f8115159050919050565b61034c81610338565b82525050565b5f6020820190506103655f830184610343565b92915050565b5f73ffffffffffffffffffffffffffffffffffffffff82169050919050565b5f6103948261036b565b9050919050565b6103a48161038a565b82525050565b5f6020820190506103bd5f83018461039b565b92915050565b5f819050919050565b6103d5816103c3565b82525050565b5f6020820190506103ee5f8301846103cc565b92915050565b5f82825260208201905092915050565b7f4f6e6c7920617262697465722063616e20617070726f766521000000000000005f82015250565b5f6104386019836103f4565b915061044382610404565b602082019050919050565b5f6020820190508181035f8301526104658161042c565b9050919050565b5f81905092915050565b50565b5f6104845f8361046c565b915061048f82610476565b5f82019050919050565b5f6104a382610479565b9150819050919050565b7f5472616e73666572206661696c656421000000000000000000000000000000005f82015250565b5f6104e16010836103f4565b91506104ec826104ad565b602082019050919050565b5f6020820190508181035f83015261050e816104d5565b905091905056fea2646970667358221220314998235af0c91ea23d62012bdbee1e92e42bcd6039787f620cc059901e497264736f6c634300081c0033",
  "linkReferences": {},
  "deployedLinkReferences": {},
  "immutableReferences": {},
  "inputSourceName": "project/contracts/Escrow.sol",
  "buildInfoId": "solc-0_8_28-8a58f84fe657f9265e1663e2b0d1321d6ab4340f"
}